{
  "_format": "hh-sol-artifact-1",
  "contractName": "TokenDeposit",
  "sourceName": "contracts/TokenDeposit.sol",
  "abi": [
    {
      "inputs": [
        {
          "internalType": "address",
          "name": "_token",
          "type": "address"
        }
      ],
      "stateMutability": "nonpayable",
      "type": "constructor"
    },
    {
      "inputs": [],
      "name": "TokenDeposit__Insufficient_Balance",
      "type": "error"
    },
    {
      "inputs": [],
      "name": "TokenDeposit__Transfer_Failed",
      "type": "error"
    },
    {
      "inputs": [
        {
          "internalType": "uint256",
          "name": "amount",
          "type": "uint256"
        }
      ],
      "name": "deposit",
      "outputs": [],
      "stateMutability": "nonpayable",
      "type": "function"
    },
    {
      "inputs": [],
      "name": "getSlab",
      "outputs": [
        {
          "internalType": "uint256",
          "name": "",
          "type": "uint256"
        }
      ],
      "stateMutability": "view",
      "type": "function"
    },
    {
      "inputs": [
        {
          "internalType": "uint256",
          "name": "index",
          "type": "uint256"
        }
      ],
      "name": "getSlabBalance",
      "outputs": [
        {
          "internalType": "uint256",
          "name": "",
          "type": "uint256"
        }
      ],
      "stateMutability": "view",
      "type": "function"
    },
    {
      "inputs": [],
      "name": "i_token",
      "outputs": [
        {
          "internalType": "contract IERC20",
          "name": "",
          "type": "address"
        }
      ],
      "stateMutability": "view",
      "type": "function"
    },
    {
      "inputs": [
        {
          "internalType": "uint256",
          "name": "",
          "type": "uint256"
        }
      ],
      "name": "slabBalances",
      "outputs": [
        {
          "internalType": "uint256",
          "name": "",
          "type": "uint256"
        }
      ],
      "stateMutability": "view",
      "type": "function"
    },
    {
      "inputs": [
        {
          "internalType": "uint256",
          "name": "",
          "type": "uint256"
        }
      ],
      "name": "slabCapacities",
      "outputs": [
        {
          "internalType": "uint256",
          "name": "",
          "type": "uint256"
        }
      ],
      "stateMutability": "view",
      "type": "function"
    }
  ],
  "bytecode": "0x60806040526040518060a00160405280606461ffff16815260200160c861ffff16815260200161012c61ffff16815260200161019061ffff1681526020016101f461ffff1681525060009060056100579291906100cd565b5034801561006457600080fd5b506040516109e43803806109e4833981810160405281019061008691906101a0565b80600260006101000a81548173ffffffffffffffffffffffffffffffffffffffff021916908373ffffffffffffffffffffffffffffffffffffffff160217905550506101cd565b82805482825590600052602060002090810192821561010f579160200282015b8281111561010e578251829061ffff169055916020019190600101906100ed565b5b50905061011c9190610120565b5090565b5b80821115610139576000816000905550600101610121565b5090565b600080fd5b600073ffffffffffffffffffffffffffffffffffffffff82169050919050565b600061016d82610142565b9050919050565b61017d81610162565b811461018857600080fd5b50565b60008151905061019a81610174565b92915050565b6000602082840312156101b6576101b561013d565b5b60006101c48482850161018b565b91505092915050565b610808806101dc6000396000f3fe608060405234801561001057600080fd5b50600436106100625760003560e01c8063177642fd14610067578063931690d1146100975780639608b232146100c75780639c63b540146100e55780639caea75914610103578063b6b55f2514610133575b600080fd5b610081600480360381019061007c91906104d8565b61014f565b60405161008e9190610514565b60405180910390f35b6100b160048036038101906100ac91906104d8565b610173565b6040516100be9190610514565b60405180910390f35b6100cf61018b565b6040516100dc91906105ae565b60405180910390f35b6100ed6101b1565b6040516100fa9190610514565b60405180910390f35b61011d600480360381019061011891906104d8565b610229565b60405161012a9190610514565b60405180910390f35b61014d600480360381019061014891906104d8565b610246565b005b6000818154811061015f57600080fd5b906000526020600020016000915090505481565b60016020528060005260406000206000915090505481565b600260009054906101000a900473ffffffffffffffffffffffffffffffffffffffff1681565b60008060016000805490506101c691906105f8565b90505b60008111801561020a5750600081815481106101e8576101e761062c565b5b9060005260206000200154600160008381526020019081526020016000205410155b1561022257808061021a9061065b565b9150506101c9565b8091505090565b600060016000838152602001908152602001600020549050919050565b80600260009054906101000a900473ffffffffffffffffffffffffffffffffffffffff1673ffffffffffffffffffffffffffffffffffffffff166370a08231336040518263ffffffff1660e01b81526004016102a291906106a5565b602060405180830381865afa1580156102bf573d6000803e3d6000fd5b505050506040513d601f19601f820116820180604052508101906102e391906106d5565b101561031b576040517f273393c800000000000000000000000000000000000000000000000000000000815260040160405180910390fd5b600260009054906101000a900473ffffffffffffffffffffffffffffffffffffffff1673ffffffffffffffffffffffffffffffffffffffff166323b872dd3330846040518463ffffffff1660e01b815260040161037a93929190610702565b6020604051808303816000875af1158015610399573d6000803e3d6000fd5b505050506040513d601f19601f820116820180604052508101906103bd9190610771565b156103f4576040517f09bb4ded00000000000000000000000000000000000000000000000000000000815260040160405180910390fd5b6000600160008054905061040891906105f8565b90505b60008111801561045757506000818154811061042a5761042961062c565b5b9060005260206000200154826001600084815260200190815260200160002054610454919061079e565b10155b1561046f5780806104679061065b565b91505061040b565b81600160008381526020019081526020016000206000828254610492919061079e565b925050819055505050565b600080fd5b6000819050919050565b6104b5816104a2565b81146104c057600080fd5b50565b6000813590506104d2816104ac565b92915050565b6000602082840312156104ee576104ed61049d565b5b60006104fc848285016104c3565b91505092915050565b61050e816104a2565b82525050565b60006020820190506105296000830184610505565b92915050565b600073ffffffffffffffffffffffffffffffffffffffff82169050919050565b6000819050919050565b600061057461056f61056a8461052f565b61054f565b61052f565b9050919050565b600061058682610559565b9050919050565b60006105988261057b565b9050919050565b6105a88161058d565b82525050565b60006020820190506105c3600083018461059f565b92915050565b7f4e487b7100000000000000000000000000000000000000000000000000000000600052601160045260246000fd5b6000610603826104a2565b915061060e836104a2565b9250828203905081811115610626576106256105c9565b5b92915050565b7f4e487b7100000000000000000000000000000000000000000000000000000000600052603260045260246000fd5b6000610666826104a2565b915060008203610679576106786105c9565b5b600182039050919050565b600061068f8261052f565b9050919050565b61069f81610684565b82525050565b60006020820190506106ba6000830184610696565b92915050565b6000815190506106cf816104ac565b92915050565b6000602082840312156106eb576106ea61049d565b5b60006106f9848285016106c0565b91505092915050565b60006060820190506107176000830186610696565b6107246020830185610696565b6107316040830184610505565b949350505050565b60008115159050919050565b61074e81610739565b811461075957600080fd5b50565b60008151905061076b81610745565b92915050565b6000602082840312156107875761078661049d565b5b60006107958482850161075c565b91505092915050565b60006107a9826104a2565b91506107b4836104a2565b92508282019050808211156107cc576107cb6105c9565b5b9291505056fea26469706673582212209675e69a06a54ddc5a5133b4d2edc134ff728633705428a0c5d2305edee12d3564736f6c63430008120033",
  "linkReferences": {},
  "deployedLinkReferences": {}
}